:020000040800F2
:1000000000000520C98B0008698A00086B8A000877
:100010006D8A00086F8A0008718A000800000000DD
:10002000000000000000000000000000416900081E
:10003000738A000800000000E1690008456A0008B2
:10004000198C0008198C0008198C0008198C0008FC
:10005000198C0008198C0008198C0008198C0008EC
:10006000198C0008198C0008198C0008198C0008DC
:10007000198C0008198C0008198C0008198C0008CC
:10008000198C0008198C0008198C0008198C0008BC
:10009000198C0008198C0008198C0008198C0008AC
:1000A000198C0008198C0008198C0008198C00089C
:1000B000198C0008198C0008198C0008198C00088C
:1000C000198C0008198C0008198C0008198C00087C
:1000D000198C0008198C0008198C0008198C00086C
:1000E000758A0008198C0008198C0008198C000802
:1000F000198C0008198C0008198C0008198C00084C
:10010000198C0008198C0008198C0008198C00083B
:10011000198C0008198C0008818A0008198C0008C5
:10012000198C0008198C0008198C0008198C00081B
:10013000198C0008198C0008198C0008198C00080B
:10014000198C0008198C0008198C0008918A000885
:10015000198C0008198C0008198C0008198C0008EB
:10016000198C0008198C0008198C0008198C0008DB
:10017000198C0008198C0008198C00080000000078
:10018000198C0008198C0008198C0008198C0008BB
:10019000198C0008198C0008198C0008198C0008AB
:1001A000A18A0008198C0008B18A0008198C00087F
:1001B000198C0008198C0008198C0008198C00088B
:0801C000198C0008198C0008DD
:1001D00010B5054C237833B9044B13B10448AFF381
:1001E00000800123237010BDA0000020000000004B
:1001F0009094000808B5034B1BB103490348AFF3C3
:10020000008008BD00000000A400002090940008B9
:1002100053B94AB9002908BF00281CBF4FF0FF316D
:100220004FF0FF3000F072B9ADF1080C6DE904CE6B
:1002300000F006F8DDF804E0DDE9022304B07047C1
:100240002DE9F047089E04468846002B4BD18A4290
:10025000154667D9B2FA82F24AB1C2F1200701FA13
:1002600002F320FA07F7954047EA030894404FEA63
:10027000154E230CB8FBFEF71FFA85FC0EFB178802
:1002800043EA084307FB0CF1994209D9EB1807F13F
:10029000FF3080F01B81994240F21881023F2B44CD
:1002A0005B1AA4B2B3FBFEF00EFB103344EA034426
:1002B00000FB0CFCA44509D92C1900F1FF3380F098
:1002C0000781A44540F2048102382C4440EA0740EB
:1002D000A4EB0C0400271EB1D4400023C6E9004360
:1002E0003946BDE8F0878B4209D9002E00F0EB803B
:1002F0000027C6E9000138463946BDE8F087B3FA61
:1003000083F7002F47D18B4202D3824200F2FA805A
:10031000841A61EB030301209846002EE0D0C6E961
:100320000048DDE702B9FFDEB2FA82F2002A40F0AF
:100330008F80491B4FEA154E1FFA85F80127B1FB44
:10034000FEFC230C0EFB1C1143EA014308FB0CF1DD
:10035000994207D9EB180CF1FF3002D2994200F212
:10036000CD808446591AA3B2B1FBFEF00EFB1014E7
:1003700043EA044408FB00F8A04507D92C1900F112
:10038000FF3302D2A04500F2B6801846A4EB080461
:1003900040EA0C409FE7C7F1200CBB4022FA0CFE5C
:1003A0004EEA030E01FA07F420FA0CF521FA0CF3D9
:1003B0004FEA1E482543B3FBF8F92C0C08FB193310
:1003C0001FFA8EFA44EA034309FB0AF49C4202FA3C
:1003D00007F200FA07F10BD91EEB030309F1FF3016
:1003E00080F087809C4240F28480A9F10209734426
:1003F0001B1BADB2B3FBF8F008FB103345EA034416
:1004000000FB0AFAA24508D91EEB040400F1FF33F1
:100410006BD2A24569D90238744440EA0940A0FB76
:100420000289A4EB0A044C45C2464B4654D351D032
:10043000002E69D0B1EB0A0564EB030404FA0CFC4E
:10044000FD40FC404CEA0505C6E90054002747E79B
:10045000C2F1200320FA03F7954001FA02F021FAD5
:1004600003F34FEA154E3843010CB3FBFEF71FFAB6
:1004700085F80EFB173341EA034107FB08F38B4273
:1004800004FA02F407D9691807F1FF3C2FD28B4216
:100490002DD9023F2944CB1A81B2B3FBFEF00EFBEB
:1004A000103341EA034100FB08F38B4207D9691876
:1004B00000F1FF3C17D28B4215D902382944C91AE2
:1004C00040EA07473BE73746304609E70746E7E695
:1004D0001846FBE64145ABD2B8EB020A69EB0E02C7
:1004E00001381346A4E76046E9E7184695E76746F2
:1004F000D1E781467CE702382C4447E7ACF1020C97
:100500002B442FE7384608E73746E9E6704700BF37
:1005100001F0FF01102A2BDB10F0070F08D010F8B4
:10052000013B013A8B422DD010F0070F42B3F6D1B8
:10053000F0B441EA012141EA014122F007047FF0D1
:1005400000070023F0E80256083C85EA010586EA28
:10055000010685FA47F5A3FA87F586FA47F6A5FA64
:1005600087F68EB9EED1F0BC01F0FF0102F0070270
:1005700032B110F8013B013A83EA010313B1F8D11B
:100580000020704701387047002D06BF35460338FC
:10059000073815F0010F07D1013015F4807F02BF35
:1005A000013015F4C03F0130F0BC0138704700BF86
:1005B00000B1704730B587B00E4B1A6B42F48072B1
:1005C0001A631B6B03F480730093009B0225019553
:1005D00001230293039303230493074C01A92046AC
:1005E00001F08CFA00222946204601F077FB07B083
:1005F00030BD00BF0038024000200240F0B583B09B
:1006000004460D4616461F46184B4FF440325A60BA
:100610001B6C174A342101FB03239B6C022B0CD06B
:10062000124B00229A601148089BC360114B036073
:1006300001F078F828B103B0F0BD0C4B02229A60AB
:10064000F1E72146094801F0F7F90028F3D10097B6
:1006500033462A460999054801F092F80028EAD164
:100660000A21024801F0A8F8E5E700BFBC0000201D
:10067000F48B002000B00240034B1B6C034A342172
:1006800001FB0323186E7047BC000020F48B002090
:10069000034B1B6C034A342101FB0323586E704744
:1006A000BC000020F48B002070B58EB005460E46CD
:1006B00000240194FFF7E0FF02900394FFF7E8FFA6
:1006C000049005940A96FF23069307948DF834400E
:1006D0008DF835408DF836404FF4C06308930723FA
:1006E0000993FFF7C9FF0B90FFF7D2FF0C902A4642
:1006F00001A90A4802F0AAF9094A680041198B00C9
:1007000013444FF0FF3199640649D96428448300AB
:100710001A444FF07F4353640EB070BDF48B002039
:10072000BC00002000000020014B1864704700BF8F
:10073000BC000020034A136C03EB430399000A44F6
:1007400050647047BC000020034A136C03EB430362
:1007500099000A4490647047BC000020034A136C5F
:1007600003EB430399000A44D0647047BC000020A7
:10077000034A136C03EB430399000A44D06C70479F
:10078000BC000020F0B583B007460B4B1C6C0B4A35
:10079000342303FB0423DD6DFFF76EFF0646FFF7EE
:1007A00077FF0197002300930346324629462046EF
:1007B000FFF724FF03B0F0BDBC000020F48B002045
:1007C000F8B506460C461546104B1B6C10493422F2
:1007D00002FB0312926C022A0BD00D4A342101FB5A
:1007E0000323DF6DFFF748FF00FB046047F820504C
:1007F000F8BD0A46342101FB0323DF6DFFF73CFF00
:1008000000FB0460ADB227F81050F1E7BC000020F7
:10081000F48B00202DE9F04F83B081460F46009203
:10082000334A136C03EB430399000A44D36CDA8810
:1008300001929D8805F1070B4FEAEB0B4FEACB08BD
:100840005FFA88F8EBB2A8EB03085FFA88F84FF07C
:10085000000A33E0009AD65C002413E00099CB5CD8
:10086000567846EA0326F7E7214A136C03EB430365
:1008700099000A4409EB0400926C394680B2FFF7F4
:100880009FFF0134A54215D92B1B4344013B012294
:1008900002FA03F33342E7D0154A136C03EB430328
:1008A00099000A4409EB0400526C394680B2FFF704
:1008B00087FFE6E70137BFB20AF1010A019B534502
:1008C00012D90AFB0BF3009A1A44BBF1010FC1D0F5
:1008D000BBF1020FC2D00099CB5C5678360246EAD3
:1008E000034693781E43B7E703B0BDE8F08F00BF1F
:1008F000BC00002038B50A4C236C03EB43039D0079
:100900002C44E36C1C68A2F12005DA8802FB05F296
:100910009B880733DB1003FB0242FFF77BFF38BDE8
:10092000BC0000202DE9F0410546884616461F46CA
:100930001346002401E0013413465A1C1B78002B97
:10094000F9D1FFF799FE274A136C03EB4303990093
:100950000A44D36C9A88B0FBF2F0012F06D0022F24
:100960000CD02BB2002B3BDD002420E0041B04FB49
:1009700002F3C3F34F031D44ADB2F2E7031B13FBB5
:1009800002F39BB25D1BADB2EBE73A464146284607
:10099000FFF7B0FF134A136C03EB430399000A44BB
:1009A000D36C9B881D44ADB201360134A4B23778B4
:1009B000FFF762FE0B4A136C03EB430399000A44F2
:1009C000D36C9B8803FB140080B2984234BF002094
:1009D0000120002F08BF00200028D6D1BDE8F081FB
:1009E0000125C1E7BC00002008B5094B1A689369CE
:1009F00043F00103936101224FF48051054801F057
:100A00006DF901220821044801F068F908BD00BF12
:100A1000F48B00200020024000280240F0B58FB087
:100A20004A4B5A6C42F080625A645A6C02F08062FF
:100A30000092009A1A6B42F400021A631A6B02F4D5
:100A400000020192019A1A6B42F010021A631A6BAB
:100A500002F010020292029A1A6B42F040021A63EC
:100A60001A6B02F040020392039A1A6B42F48072EE
:100A70001A631A6B02F480720492049A1A6B42F49D
:100A800000721A631A6B02F400720592059A1A6BCF
:100A900042F480621A631A6B02F480620692069A2C
:100AA0001A6B42F480721A631A6B02F48072079216
:100AB000079A1A6B42F480621A631B6B03F480631B
:100AC0000893089B1023099302240A9400230B9394
:100AD0000C940E250D9509A91D4801F00FF84FF44F
:100AE000805709970A9409230D9309A9194801F021
:100AF00005F84FF4664309930A940D95164E09A91B
:100B0000304600F0FBFF4EF6FF7309930A940D95F3
:100B100009A9124800F0F2FFF72309930A940D95F2
:100B20000F4C09A9204600F0E9FF099701250A9515
:100B300009A9304600F0E2FF082309930A9509A9A4
:100B4000204600F0DBFF0FB0F0BD00BF00380240D0
:100B50000010024000180240002002400024024021
:100B60000028024008B507480823C365C02303676F
:100B7000052383674FF48033C0F888305C3002F07F
:100B80009DFB08BDBC00002010B5254C28236361E7
:100B90000923A3613523E3610B23236240F21B1376
:100BA000A36240F21523636240F21D13236340F2F7
:100BB0003523E36200212046FFF7D4FF4FF4F073A2
:100BC00023664FF488736366002384F8343084F816
:100BD000353084F836306360A360E3602361114BE5
:100BE0002360204601F060FFA0B10D4801F044FEF3
:100BF00001224FF480510C4801F070F801220821C5
:100C00000A4801F06BF800F023F90948FFF7A6FD48
:100C1000002010BD00212046FFF700FFE5E700BFE0
:100C2000F48B0020006801400020024000280240B0
:100C3000000000202DE9F04383B081464FF000080A
:100C4000CDF80480204C0126266010276760A6603E
:100C5000C4F80C801D4D4FF6FF722146284603F064
:100C600082FA304600F056F9022323606760A660DE
:100C7000C4F80C804FF6FF722146284603F073FA41
:100C80000323236067600823A360C4F80C804FF639
:100C9000FF722146284603F066FA4FF40873019369
:100CA000042323606760A660019BE3604FF6FF7238
:100CB0002146284603F057FA4946284603F070FAC1
:100CC00003B0BDE8F08300BF9C0100209C8C002095
:100CD00070B58EB00646554B9A6B42F001029A638E
:100CE0009A6B02F001020192019A1A6B42F480029F
:100CF0001A631A6B02F480020292029A1A6B42F093
:100D000004021A631A6B02F004020392039A1A6B2C
:100D100042F008021A631A6B02F008020492049A65
:100D20001A6B42F010021A631A6B02F0100205925D
:100D3000059A1A6B42F020021A631A6B02F0200225
:100D40000692069A1A6B42F040021A631A6B02F07E
:100D500040020792079A1A6B42F080021A631B6BDB
:100D600003F080030893089B02230A9301220B924D
:100D70000C930C230D930EAC082344F8143D21462C
:100D80002B4800F0BBFE4CF203730993214629481F
:100D900000F0B4FE4FF6837309932146264800F015
:100DA000ADFE4FF63F0309932146244800F0A6FE0E
:100DB00048F2331309932146214800F09FFE28236F
:100DC000099321461F4800F099FE1F4B00245C61E7
:100DD00080229A614FF40072DA614FF480621A62E5
:100DE0004FF480525A624FF480429A62DC624FF4B0
:100DF00000321A635C6303229A63DC631C641D4641
:100E0000124A45F8102F35639E64284600F010FC06
:100E1000284600F0A7FB22460F21382000F03CFABC
:100E2000382000F06BFA0EB070BD00BF00380240F1
:100E300000080240000C0240001002400014024072
:100E400000180240001C02409C0100201064024077
:100E500038B51D4C1D4B23601D4D02232B67072108
:100E600069670422AA67E967C5F88030C5F884304D
:100E7000C5F8883000216160A160E2601023236121
:100E8000402363614FF48073A361E1614FF4006319
:100E900023624FF480536362A1622046FFF718FF7C
:100EA00005F17001204603F03FF948B9094B0022D3
:100EB0001A7040F20360FFF7BDFE064B187838BD8C
:100EC000044B01221A70F4E79C8C0020400100A022
:100ED0009C0100202800002008B5032000F0CAF97A
:100EE000002007F083FD07F0EDF8002008BD0000AA
:100EF000034A1168034B1B780B441360704700BF13
:100F0000D08C00202C000020014B1868704700BFD7
:100F1000D08C002038B50446FFF7F6FF0546B4F143
:100F2000FF3F02D0044B1B781C44FFF7EDFF401B32
:100F3000A042FAD338BD00BF2C0000204A4B5A68AB
:100F400022F440325A605A6841680A435A60026883
:100F5000536823F48073536002685368016943EA5D
:100F6000012353600268536823F0407353600268A2
:100F7000536881680B4353600268936823F40063ED
:100F8000936002689368C1680B439360826A374B31
:100F90009A424BD00268936823F0706393600268B2
:100FA0009368816A0B4393600268936823F040530F
:100FB000936002689368C16A0B4393600268936808
:100FC00023F00203936002689368816943EA410356
:100FD000936090F82030002B33D10268536823F4DB
:100FE000006353600268D36A23F47003D36201681C
:100FF000CB6AC269013A43EA0253CB620268936842
:1010000023F4007393600268936890F8301043EA09
:10101000412393600268936823F4806393600268BD
:101020009368416943EA812393607047026893683B
:1010300023F0706393600268936823F040539360D9
:10104000BCE70268536843F4006353600268536866
:1010500023F46043536001684B68426A013A43EAF3
:1010600042334B60BEE700BF002301400100000F88
:1010700028B310B50446036C43B1236C13F0100F72
:101080000BD00120002384F83C3010BD07F03AF863
:101090000023636484F83C30EFE7226C094B134073
:1010A00043F0020323642046FFF748FF00206064FA
:1010B000236C23F0030343F001032364E2E70120E0
:1010C000704700BFFDEEFFFF30B482B000230193F4
:1010D00090F83C30012B00F0C080012380F83C30B8
:1010E0000B68092B22D90568EA689BB203EB43031E
:1010F0001E3B072404FA03F322EA0303EB600B68A8
:10110000574A93420BD00568EA688C689BB203EBA0
:1011100043031E3B04FA03F31343EB601BE0026836
:10112000D3688C6843EA0463D36014E005682A69D5
:101130009BB203EB4303072404FA03F322EA0303FD
:101140002B6105682A698C680B8803EB430304FA5A
:1011500003F313432B614B68062B24D805686A6B95
:1011600003EB8303053B1F2404FA03F322EA030382
:101170006B6305686A6B4B6803EB8303053B0C8864
:1011800004FA03F313436B630268364B9A423AD076
:101190000268344B9A423FD0002380F83C30184616
:1011A00002B030BC70470C2B16D805682A6B03EBD5
:1011B0008303233B1F2404FA03F322EA03032B6374
:1011C00005682A6B4B6803EB8303233B0C8804FA06
:1011D00003F313432B63D7E70568EA6A03EB830342
:1011E000413B1F2404FA03F322EA0303EB62056880
:1011F000EA6A4B6803EB8303413B0C8804FA03F370
:101200001343EB62C0E70B68122BC1D1164A536837
:1012100043F480035360BBE70B68114A112B18BFDE
:101220009342B9D1104A536843F4000353600A68EB
:101230000B4B9A42B0D10D4B1B680D4AA2FB032306
:101240009B0C03EB83035A00019202E0019B013BDC
:101250000193019B002BF9D19EE70220A0E700BF7C
:10126000120000100020014000230140380000203F
:1012700083DE1B430649CB6823F4E0631B041B0C8D
:10128000000200F4E0600343024A1A43CA60704758
:1012900000ED00E00000FA0530B4154BDB68C3F345
:1012A0000223C3F10704042C28BF04241D1D062DAE
:1012B00014D9033B4FF0FF3505FA04F421EA040189
:1012C000994005FA03F322EA03031943002807DBD8
:1012D0000901C9B2074B195430BC70470023E9E734
:1012E00000F00F000901C9B2034B1954F4E700BF25
:1012F00000ED00E000E400E014ED00E0002807DB72
:1013000000F01F02400901239340024A42F82030B6
:10131000704700BF00E100E0002838D010B5044657
:10132000437F1BB30223637723791BBB2368194ACE
:101330005A612268936823F018039360637913BBA2
:1013400023684FF0FF321A612268936823F060032C
:1013500061690B4393602268936823F08003A1695D
:101360000B43936001236377002010BD037706F0E1
:101370000DFFD7E7E268A168204600F00DF80028CD
:10138000DCD00120F1E7236822691A61DCE7012043
:10139000704700BFB71DC10430B41F24651E3CB1A7
:1013A00005F01F0321FA03F32C4613F0010FF5D0CB
:1013B000182A23D8DFE802F00F222222222222223A
:1013C0001E222222222222221A2222222222222209
:1013D0000D00062D14D80368596101688B6823F04D
:1013E00018031A438A60002030BC7047072DF2D9D9
:1013F0000120F9E70F2DEED90120F5E70120F3E7F1
:101400000120F1E7002844D010B5044690F83530AB
:10141000002B2ED0022384F83530226811681E4B31
:101420000B40136022681168636860690343E068D9
:10143000034320690343A0680343A0690343206A70
:101440000343606A0343A06A0343E06A0343206BDB
:1014500003430B4313606368102B0DD02268D368DD
:1014600043F01E03D3600020E064012384F835308C
:1014700010BD06F0A1FECDE7237F627F43EA022381
:10148000A27F43EA0243E17F226843EA016393615A
:10149000E4E70120704700BF07F0E0FF0268D3B225
:1014A000103B0949A1FB03131B090849C95CC1652D
:1014B000032B04D8064B13408365806D7047044BA3
:1014C000134004338365F8E7ABAAAAAA84D10008C5
:1014D00000FCFFFF836A826992B9012B0AD01BB11D
:1014E000022B01D000207047C36A13F0807F2CD1FB
:1014F00000207047C36AB3F1C07F28D00020704736
:10150000B2F5005F05D0022B29D9032B15D000209E
:101510007047032B03D8DFE803F01C041C0A0020EB
:101520007047C36A13F0807F15D100207047C36AEB
:10153000B3F1C07F11D000207047C36A13F0807FE1
:1015400001D0012070470020704701207047012022
:10155000704701207047012070470120704701202B
:101560007047000070B50446FFF7CEFC002C5BD03E
:101570000546002384F83430022384F8353022688D
:10158000136823F00103136023681A6812F0010F37
:101590000AD0FFF7B9FC401B0528F5D92023636565
:1015A000032084F8350070BD1A6820481040616837
:1015B000A2680A43E1680A4321690A4361690A4350
:1015C000A1690A43E1690A43216A0A430243616A45
:1015D00004291ED01A602668756925F00705636A1C
:1015E0001D43042B07D1A36A1D43E36A1BB12046A8
:1015F000FFF770FF90B975612046FFF74FFFE26D6E
:101600003F239340836000206065012384F83530D8
:10161000C9E7E16A206B01430A43DBE740236365C6
:10162000012084F83500BEE70120BCE73F8010F0C0
:1016300000282CD038B5044690F83530DBB2022BA8
:1016400027D00268136823F00103136003680025A4
:101650001D6003685D6003689D600368DD6003686A
:101660001D61036821225A61FFF718FFE26D3F23D5
:1016700093408360E56325646564A564E56425653E
:10168000656584F8355084F83450284638BD01200B
:1016900070470220FAE770B40668746C04F04044A6
:1016A000039D45EA03431C4374640368DA6343689B
:1016B000B3F5403F03D00368D96070BC704701F0B8
:1016C0007F4601F47F0301F47F45CAB2846894B178
:1016D000012C0ED0022C11D0032C17D0360F1B0D6D
:1016E0002D0B190241EA051141EA063141EA1211B6
:1016F00001E021F07F4103689963DEE7DB0CAD0A6E
:10170000D90241EA451141EAD201F4E7F60FDB0CB8
:10171000ED0A990241EA451141EAC63141EAD20196
:10172000E9E7000038B310B5044690F83930EBB162
:10173000022384F839302268136823F44033616847
:101740000B4313602268536B23F00703A1680B431C
:1017500053632268116C094B0B40E1680B4313641F
:101760000020E063012384F8393010BD80F8383060
:1017700006F0ACFDDCE70120704700BF00C0FFFFB2
:1017800010B582B090F83840012C13D004460120E7
:1017900084F83800022084F839000498009020462C
:1017A000FFF779FF2268136843F0010313600020FC
:1017B00002B010BD0220FBE770B582B004460D46B2
:1017C0000023019303681B6813F0010F11D12268F5
:1017D000D369526A134313F0200F47D123681222B2
:1017E0009A60012384F83930002084F8380002B070
:1017F00070BDFFF789FB064623685A6812F0020F96
:10180000E5D15A680192019A12F0210F14D1B5F175
:10181000FF3FF1D0FFF778FB801BA84201D8002DD5
:10182000EAD1E36B43F02003E363032084F839003B
:10183000002384F83830DAE7019A12F0200F03D041
:10184000E26B42F00202E263019A12F0010F03D050
:10185000E26B42F00102E26321229A60042384F8E1
:101860003930002384F838300120C0E7FFF74CFB03
:10187000064623685A6812F0100FAFD15A680192D9
:10188000019A12F0290F14D1B5F1FF3FF1D0FFF703
:101890003BFB801BA84201D8002DEAD1E36B43F04B
:1018A0002003E363032084F83900002384F83830F0
:1018B0009DE7019A12F0080F03D0E26B42F0040298
:1018C000E263019A12F0200F03D0E26B42F00202B1
:1018D000E263019A12F0010F03D0E26B42F00102C1
:1018E000E26329229A60042384F83930002384F8C3
:1018F000383001207BE77047704770B504460368B5
:101900005D681E6815F0010F16D016F4807F13D0A5
:101910001A6822F480721A60C36B43F00103C36338
:10192000036801229A60042380F83930002380F88C
:101930003830436903B1984715F0200F18D016F4DA
:10194000005F15D02268136823F4005313602368E6
:1019500020229A60E36B43F00203E363042384F8DC
:101960003930002384F8383063690BB1204698473A
:1019700015F0080F18D016F4006F15D02268136800
:1019800023F400631360236808229A60E36B43F03A
:101990000403E363042384F83930002384F83830E7
:1019A00063690BB12046984715F0040F02D016F476
:1019B000806F20D115F0020F16D016F4007F13D0DF
:1019C0002268136823F400731360236802229A606C
:1019D000E36BE363012384F83930002384F8383063
:1019E00023690BB12046984715F0100F02D016F46A
:1019F000805F0CD170BD2268136823F4806313608C
:101A0000236804229A602046FFF775FFD2E7226818
:101A1000136823F480531360236810229A60E36BE9
:101A2000E363012384F83930002384F838302046FA
:101A3000FFF762FFDEE7000090F83830012B59D045
:101A400030B4012380F83830022380F8393000EBBD
:101A50000113DA698B1C1B01C35842EA0343093A9C
:101A6000012A1ED98A1C00EB0212526843EA026363
:101A700041BB0468656A204A2A40134363620268D6
:101A800000EB01139C699461DB69093B012B10D9C0
:101A9000012380F83930002380F83830184630BCF4
:101AA00070478A1C00EB0212526802F07F42134317
:101AB000DEE7023100EB01114B68026823F07F433F
:101AC0009362E5E70468E5690B4A2A401343E36142
:101AD000026800EB01139C691461DB69093B012B6F
:101AE000D6D8023100EB01114B68026823F07F4326
:101AF0001362CDE702207047F0FFFC0000230F2B9C
:101B000000F2E280F0B482B039E0092200E0002265
:101B1000B2403A4302346D4E46F824206C4A1468B1
:101B2000EA4302EA04064F6817F4803F01D045EA11
:101B30000406674C2660646802EA04064F6817F4DE
:101B4000003F01D045EA0406614C6660A46802EAE1
:101B500004064F6817F4801F01D045EA04065C4C68
:101B6000A660E46822404E6816F4001F01D045EAE2
:101B70000402574CE26001330F2B00F2A2800122D5
:101B80009A400C6804EA0205AA42F4D14C68122C6F
:101B900018BF022C10D1DE08083650F826C003F01A
:101BA0000704A7000F24BC402CEA040C0C69BC40BD
:101BB00044EA0C0440F8264004685F000326BE4057
:101BC000F64306EA040C4C6804F00304BC4044EA03
:101BD0000C0404604C6804F1FF3C112C18BFBCF1EC
:101BE000010F01D9122C11D1846806EA040CCC68CB
:101BF000BC4044EA0C048460446824EA020C4C684B
:101C0000C4F300129A4042EA0C024260C2681640D5
:101C10008A68BA403243C2604A6812F0805FAAD034
:101C20002C4A546C44F480445464526C02F4804254
:101C30000192019A9C08A61C244A52F8267003F0CF
:101C4000030296000F22B24027EA0207224A90427E
:101C50003FF45DAF02F58062904222D002F58062CF
:101C6000904220D002F5806290421ED002F5806240
:101C700090421CD002F5806290421AD002F5806238
:101C8000904218D002F58062904216D002F5806230
:101C9000904214D002F5806290423FF436AF0A229F
:101CA00036E7012234E7022232E7032230E704223A
:101CB0002EE705222CE706222AE7072228E708223A
:101CC00026E702B0F0BC7047704700BF0038014003
:101CD000003C0140003802400000024012B90904F3
:101CE000816170478161704708B5054B5B690342AC
:101CF00000D108BD024B586106F058F9F9E700BF62
:101D0000003C0140F8B50668346A04F00F07C4F3DC
:101D10004343C4F30A14022B2ED16CB307EB8702A2
:101D2000D3000344596C39B305462246304603F0CC
:101D3000E9FABA003A44D3002B445A6C22445A645C
:101D4000DA6C2244DA6406EB4713D3F810150B4A19
:101D50000A408AB1D3F8002522F0804242F00042C6
:101D6000C3F80025BB00D919CA002A4492F85030A4
:101D700083F0010382F85030F8BD00BF0000F81F67
:101D800030B583B005460468D4F840340193D4F8E4
:101D900040340093009B23F02E030093019B13F02B
:101DA000020F07D0019B13F0010F28D1009B43F0D5
:101DB00002030093019B13F0080F13D0009B43F024
:101DC00008030093019B13F0040F34D0AB69022B7E
:101DD0001CD0EB68032B29D0284606F0CFFE2846FE
:101DE00006F0BAFE019B13F0200F03D0009B43F0D6
:101DF00020030093009BC4F8403403B030BDA369B6
:101E000023F00053A36106F0A7FECFE7019B03F484
:101E1000C023B3F5802F04D00121286803F084FA91
:101E2000DAE70221286803F07FFAD5E74EF6602250
:101E3000C4F80424D0E7284606F0A6FED4F84034BF
:101E400023F02E03C4F840342A68936943F000530A
:101E50009361C7E7F8B506460D46076807EB4117DB
:101E600007F5A064A36813F0040F3CD00423A3601B
:101E7000E36843F00203E360A36813F4007F68D1D2
:101E8000A36813F0010F00F08D8033694BB1AA00F5
:101E90002A44D30033449A6C2169C1F31201521AC7
:101EA000DA64AA002A44D3003344012283F85D2077
:101EB00000219965A26093F83F20022A14BF0023F5
:101EC00001238A4208BF0123002B4ED1032A57D099
:101ED000AB005919CA00324492F8503083F0010324
:101EE00082F85030F8BDA36813F0200F02D02023F1
:101EF000A360C1E7A36813F0080F17D1A36813F418
:101F0000806FB9D0E36843F00203E360006803F038
:101F100053FA1023A36005EB8502D3003344082253
:101F200083F85D204FF48063A360A5E7E36843F086
:101F30000203E36001EB8102D3000344052283F82E
:101F40005D201023A3600823A360006803F034FA27
:101F500092E7E36843F00203E3602946306803F048
:101F60002BFA4FF40073A360BCE7E36843F002036D
:101F7000E3602946306803F01FFA1023A360A7E747
:101F8000D7F8003543F00053C7F8003505EB85025C
:101F9000D3003344012283F85C202946304606F002
:101FA000E7FD95E7A36813F0020F62D0E36823F022
:101FB0000203E36005EB8502D300334493F85D3000
:101FC000012B20D0052B32D0082B18BF062B3ED179
:101FD000AA002A44D30033449A6D01329A65032A39
:101FE0002DD9AA002A44D300334400229A65042242
:101FF00083F85C20D7F8003523F0804343F000439A
:10200000C7F8003506E005EB8502D3003344012212
:1020100083F85C200223A36005EB8502D3003344E0
:1020200093F85C202946304606F0A2FD5AE705EBFE
:102030008502D3003344052283F85C20EAE705EBF0
:102040008502D3003344022283F85C20D2E7032BBD
:10205000E0D105EB8502D3003344022283F85C20F3
:10206000D7F8003523F0804343F00043C7F800352C
:10207000D0E7A36813F0800F21D1A36813F0100FED
:102080003FF430AF05EB8502D3001A46334493F892
:102090003F30032B2BD0022B14BF00220122002B38
:1020A00014BF134601233BB105EB8502D300334433
:1020B00000229A6533694BB31023A36012E7E368EB
:1020C00043F00203E360AB005919CA003244916D3A
:1020D000013191652B44DA003244062382F85D30E9
:1020E0002946306803F068F98023A360FAE605EB1F
:1020F0008502D300334400229A65E36843F002036B
:10210000E3602946306803F057F9D5E705EB85020F
:10211000D3003344032283F85D20E36843F00203D5
:10212000E3602946306803F047F9C5E7F8B503686E
:1021300003EB411303F5A064A26812F0040F24D14D
:102140000E460546A26812F0200F25D02023A3607A
:1021500001EB8102D3001A46034493F83D30012B72
:1021600019D18B000244002182F83D103344DA007B
:102170000244022382F85C30E36843F00203E36028
:102180003146006803F018F905E00423A360E36812
:1021900043F00203E360F8BDA26812F0400F34D1AF
:1021A000A26812F4007F4AD1A26812F0010F51D147
:1021B000A26812F0080F62D1A26812F0100F6FD05F
:1021C0008A000A44D300034400229A65032283F85C
:1021D0005D2093F83D306BB901EB8102D3000344DD
:1021E00093F83C3033B901EB8102D3000344012260
:1021F00083F83D20E36843F00203E360314628683A
:1022000003F0DAF81023A360C5E78B005918CA0061
:102210000244042182F85D10012182F83D1033440C
:10222000DA00024400239365E36843F00203E360AD
:102230003146006803F0C0F84023A360ABE7E368D1
:1022400043F00203E360006803F0B6F84FF4007354
:10225000A360A0E78F007A18D300034400229A6598
:10226000E36843F00203E360006803F0A5F801238C
:10227000A360B919C800284480F85D308BE70823B3
:10228000A360E36843F00203E360006803F094F89E
:1022900006EB8601C8002844052380F85D307AE704
:1022A000A26812F0800F36D1A26812F4806F43D179
:1022B000A26812F0020F3FF46EAFE26822F0020251
:1022C000E26001EB8101CA001146024492F85D20F0
:1022D000012A45D0032A57D0042A69D0052A6FD095
:1022E000082A18BF062A56D1282101FB06018A6D4B
:1022F00001328A65032A69D90A46002191650421C1
:1023000082F85C10D3F8002522F0804242F00042AF
:10231000C3F800253FE0E36843F00203E360006890
:1023200003F04AF806EB8601CB002B44062283F823
:102330005D208023A3602EE7E36843F00203E3609F
:10234000006803F039F81023A3604FF48063A360A2
:1023500006EB8601CB002B44082283F85D201AE7A8
:102360000B460344012283F85C2093F83F30023B84
:10237000DBB293420FD80B46034493F8512082F00E
:10238000010283F8512006E006EB8602D3000344E5
:10239000022283F85C200223A36006EB8602D300AE
:1023A0002B4493F85C203146284606F0E1FBF2E628
:1023B00006EB8602D3000344022283F85C20EAE79E
:1023C000282303FB060383F85C20E4E7282202FBB2
:1023D0000602022182F85C1094E7F8B5044605680D
:1023E000284602F09DFF012800D0F8BD206802F0C9
:1023F00093FF0028F9D0206802F08EFF10F4001F30
:1024000003D023684FF400125A61206802F084FF61
:1024100010F4801F03D023684FF480125A612068A3
:1024200002F07AFF10F0806F03D023684FF08062D3
:102430005A61206802F070FF10F0020F02D023688A
:1024400002225A61206802F067FF10F0005F25D178
:10245000206802F061FF10F0807F31D1206802F027
:102460005BFF10F0080F2FD1206802F055FF10F02D
:10247000007F30D1206802F04FFF10F0100FB4D071
:102480002268936923F0100393612046FFF73AFC1A
:102490002268936943F010039361A6E7D5F84034AE
:1024A00023F02E03C5F84034204606F05BFB0121E3
:1024B000206802F039FF23684FF000525A61C7E7E5
:1024C0002046FFF75DFCC9E7204606F03FFB236886
:1024D00008225A61C8E7206802F069FF0746002613
:1024E00004E0F1B22046FFF721FE0136A368B342B3
:1024F00012D906F00F0327FA03F313F0010FF4D0FB
:1025000005EB4613D3F8003513F4004FE9D0F1B2D0
:102510002046FFF79FFCE8E723684FF000725A61FE
:10252000A8E738B590F8B832012B0ED00446012543
:1025300080F8B852006802F0B3FE2946206802F025
:1025400013FF002084F8B80238BD0220FCE790F8A1
:10255000B832012B0BD010B50446012380F8B832F5
:10256000006802F097FF002084F8B80210BD022036
:1025700070470000002857D010B5044690F841304D
:10258000002B41D0242384F841302268136823F0C3
:10259000010313606368226823F07063136122688B
:1025A000936823F400439360E368012B31D0A36860
:1025B000226843F404439360E368022B2FD022681F
:1025C00051681A4B0B4353602268D36823F40043CD
:1025D000D360236962691343A169226843EA012336
:1025E000D360E369216A22680B4313602268136891
:1025F00043F00103136000206064202384F841301D
:10260000206384F8420010BD80F8403005F07EFE63
:10261000B8E7A368226843F400439360CCE72368DB
:102620004FF400625A60CAE7012070470080000240
:1026300090F84130DBB2202B24D190F84030012BB0
:1026400022D0012380F84030242380F841300268F2
:10265000136823F0010313600268136823F48053A6
:10266000136002681368194311600268136843F02D
:1026700001031360202380F84130002380F84030AC
:1026800018467047022070470220704790F841308A
:10269000DBB2202B22D190F84030012B20D0012337
:1026A00080F84030242380F841300268136823F01A
:1026B000010313600268136823F4706343EA012185
:1026C00011600268136843F001031360202380F84F
:1026D0004130002380F84030184670470220704790
:1026E00002207047F0B44D680468E368C3F30B43FD
:1026F0001D44D2011444D4F8883003F47043C4F864
:1027000088300B680468E668C6F30B46334401332F
:10271000144443EA0543C4F88830CD680468E3688C
:10272000C3F30A031D441444D4F88C3003F47043FB
:10273000C4F88C308B680468E668C6F30A06334434
:102740000133144443EA0543C4F88C30036813444E
:10275000D3F8944024F00704C3F89440036813446A
:102760000C69C3F8944091F831C091F832708E69C9
:1027700005681544D5F89C300024C5F89C4091F8B4
:10278000303043EA0C2343EA07430568154443EA23
:102790000663C5F89C3003681344D3F8985025F0BD
:1027A000FF05C3F89850036813444D69C3F8985067
:1027B00003681344D3F8A0602D4D3540C3F8A050F2
:1027C000CD690E6A036813443543C3F8A05003680B
:1027D0001344D3F8AC50C3F8AC40036813444C6ABC
:1027E000C3F8AC400B696BB1012B3AD0022B18BF78
:1027F000042B38D0032B38D0072B01D0012302E063
:10280000022300E0042304681444D4F8B05005F017
:10281000E025C4F8B0508C6A03FB04F54C680E68E0
:10282000A41B03FB04F303330468144443EA054385
:10283000C4F8B03003681344D3F8B4500D4C2C40A6
:10284000C3F8B44003681344C96AC3F8B4100368FA
:102850001A44D2F8843043F00103C2F88430F0BC4B
:1028600070470323CFE70223CDE70223CBE700BF66
:10287000F8F8FFFF00F8FFFF002872D038B50446D3
:1028800090F8A130002B67D0022384F8A130226891
:10289000936923F07043936121688A696368A06833
:1028A0000343E06803432069034313438B612168BA
:1028B0008A682D4B1A408A60656920688268A16920
:1028C00041EA05410A4382602168CA681A40CA6029
:1028D000E5692068C268216A41EA05410A43C2608D
:1028E00021680A691A400A61656A20680269A16A5A
:1028F00041EA05410A43026121684A6913404B617C
:10290000E06A21684B69226B42EA004213434B6143
:1029100094F8350094F836301B042168CA6A02F036
:102920007F42CA622168CA6A43EA002394F83400ED
:1029300003431343CB622268536B43F00603536394
:102940002268936943F0010393610020C4F8A40056
:10295000012384F8A13038BD80F8A03005F036FDA1
:1029600092E70120704700BF00F800F07047704701
:10297000704770B5044603689D6B5E6B15F0040FDD
:1029800002D016F0040F12D115F0020F02D016F08B
:10299000020F21D115F0010F02D016F0010F32D134
:1029A00015F0080F02D016F0080F3DD170BD5A6B1C
:1029B00022F004025A6303680422DA63D0F8A430D8
:1029C00043F00103C0F8A43080F8A120002380F870
:1029D000A030FFF7CBFFD7E72268536B23F0020349
:1029E000536323680222DA63D4F8A4301343C4F893
:1029F000A430042384F8A130002384F8A0302046BA
:102A0000FFF7B4FFC6E72268536B23F0010353635B
:102A100022680123D36384F8A130002384F8A03016
:102A20002046FFF7A4FFBBE72268536B23F008039F
:102A3000536323680822DA63012384F8A13000235A
:102A400084F8A0302046FFF793FFAFE790F8A0305E
:102A5000012B27D02DE9F04194460F4606464FF052
:102A6000010880F8A080022380F8A130342404FB00
:102A7000020438340D460FCD0FC40FCD0FC40FCD57
:102A80000FC42B682360624639463046FFF72AFEA2
:102A90003368C3F8248086F8A180002086F8A0005F
:102AA000BDE8F0810220704790F8A1007047000057
:102AB000024A136843F4807313607047007000404B
:102AC00010B582B01B4B1A6C42F080521A641B6C1A
:102AD00003F080530193019B174A136843F480333A
:102AE0001360FEF711FA0446134B5B6813F4803F42
:102AF00008D1FEF709FA001BB0F57A7FF4D903205C
:102B000002B010BD0C4A136843F400331360FEF7A3
:102B1000FBF90446084B5B6813F4003F07D1FEF74E
:102B2000F3F9001BB0F57A7FF4D90320E8E7002021
:102B3000E6E700BF00380240007000402DE9F04198
:102B400005460F4616469846069C2B689B683B42F6
:102B500014BF01230023B34212D0B4F1FF3FF4D0DD
:102B60002CB1FEF7D1F9A0EB0800A042EDD9042367
:102B700085F841306B6C43F001036B64012000E089
:102B80000020BDE8F08181647047000030B583B05B
:102B90000446FEF7B9F9002C54D0054694F84030AD
:102BA000DBB2012B50D0012384F8403094F841303F
:102BB000002B3CD021680B6823F4F853A268013A3B
:102BC00043EA02230B60A36C00932B4600222021D2
:102BD0002046FFF7B3FF024618BB206803681B4975
:102BE00019406568E36843EA0563E5692B43256A94
:102BF0002B430B43036020684168154B0B4025694C
:102C0000616941EA0541A56929430B434360216895
:102C10000B6843F001030B6000236364012384F815
:102C20004130002384F84030104603B030BD84F8B2
:102C30004030204605F05CFC41F288312046FFF729
:102C4000A2FFB7E70122EFE70222EDE72FFFFF0027
:102C5000FEF8E0FF002800F0DB8170B582B004468A
:102C6000036813F0010F29D0A24B9B6803F00C03FB
:102C7000042B1AD09F4B9B6803F00C03082B0FD03A
:102C80006368B3F5803F40D0002B54D1994B1A684C
:102C900022F480321A601A6822F480221A6039E025
:102CA000944B5B6813F4800FEAD0924B1B6813F4CB
:102CB000003F03D06368002B00F0AC81236813F061
:102CC000020F75D08B4B9B6813F00C0F5ED0894BB5
:102CD0009B6803F00C03082B53D0E368002B00F033
:102CE0008A80844A136843F001031360FEF70CF9ED
:102CF0000546804B1B6813F0020F73D1FEF704F9F1
:102D0000401B0228F5D9032087E17A4A136843F46F
:102D10008033136063682BB3FEF7F6F80546754BF6
:102D20001B6813F4003FC9D1FEF7EEF8401B64287E
:102D3000F5D9032071E1B3F5A02F09D06D4B1A68C6
:102D400022F480321A601A6822F480221A60E1E7C5
:102D5000684B1A6842F480221A601A6842F4803282
:102D60001A60D7E7FEF7D0F80546624B1B6813F4EC
:102D7000003FA3D0FEF7C8F8401B6428F5D9032014
:102D80004BE15C4B5B6813F4800FA6D1594B1B6879
:102D900013F0020F04D0E368012B01D001203CE1C5
:102DA000544A136823F0F803216943EAC10313600E
:102DB000236813F0080F46D0636983B34D4A536FFD
:102DC00043F001035367FEF79FF80546494B5B6FDD
:102DD00013F0020F37D1FEF797F8401B0228F5D900
:102DE00003201AE1434A136823F0F803216943EAF8
:102DF000C1031360DCE73F4A136823F0010313604B
:102E0000FEF782F805463B4B1B6813F0020FCFD04C
:102E1000FEF77AF8401B0228F5D90320FDE0354A79
:102E2000536F23F001035367FEF76EF80546314BED
:102E30005B6F13F0020F06D0FEF766F8401B022806
:102E4000F5D90320E9E0236813F0040F7ED0294B65
:102E50001B6C13F0805F1ED1264B1A6C42F080521F
:102E60001A641B6C03F080530193019B0125224BD4
:102E70001B6813F4807F10D0A368012B21D0002B96
:102E80003CD11C4B1A6F22F001021A671A6F22F014
:102E900004021A671AE00025E9E7174A136843F4A9
:102EA00080731360FEF730F80646134B1B6813F46B
:102EB000807FE1D1FEF728F8801B6428F5D9032034
:102EC000ABE00C4A136F43F001031367A3685BB3D5
:102ED000FEF71AF80646074B1B6F13F0020F34D1AA
:102EE000FEF712F8801B41F288339842F3D9032091
:102EF00093E000BF0038024000700040052B09D06D
:102F0000484B1A6F22F001021A671A6F22F004026E
:102F10001A67DBE7434B1A6F42F004021A671A6F15
:102F200042F001021A67D1E7FDF7EEFF06463D4B7E
:102F30001B6F13F0020F08D0FDF7E6FF801B41F274
:102F400088339842F3D9032067E0F5B9A369002BD1
:102F500062D0344A926802F00C02082A5FD0022B39
:102F600019D0304A136823F080731360FDF7CCFF4B
:102F700004462C4B1B6813F0007F47D0FDF7C4FFBD
:102F8000001B0228F5D9032047E0264A136C23F0E2
:102F900080531364DAE7234A136823F080731360C5
:102FA000FDF7B2FF05461F4B1B6813F0007F06D0EC
:102FB000FDF7AAFF401B0228F5D903202DE0E369A5
:102FC000226A1343626A43EA8213A26A5208013AF0
:102FD00043EA0243E26A43EA026343F00053114AC0
:102FE0005360136843F080731360FDF78DFF044650
:102FF0000C4B1B6813F0007F06D1FDF785FF001B0B
:103000000228F5D9032008E0002006E0002004E0B3
:1030100001207047012000E0002002B070BD0120B7
:10302000FBE700BF00380240264B9B6803F00C030F
:10303000042B44D0082B01D0234870472DE9F04BD6
:10304000204B5A6802F03F025B6813F4800F13D0E4
:103050001C4B5968C1F3881100231C48A1FB0001D7
:10306000FDF7D6F8174B5B68C3F3014301335B00F0
:10307000B0FBF3F0BDE8F08B124B5B68C3F3881331
:103080001E4600275C010025E41A65EB0705A9012F
:1030900041EA9461A001001B61EB0501CB0043EA0A
:1030A0005073C400A01943EB07018B0243EA90530D
:1030B0008402204619460023FDF7AAF8D2E7034808
:1030C000704700BF003802400024F40040787D01C2
:1030D000002800F0A28070B50446524B1B6803F034
:1030E0000F038B420CD24F4A136823F00F030B439C
:1030F0001360136803F00F038B4201D0012070BDF1
:10310000236813F0020F17D013F0040F04D0464ABF
:10311000936843F4E0539360236813F0080F04D0DE
:10312000414A936843F4604393603F4A936823F0B5
:10313000F003A068034393600D46236813F0010F6A
:1031400031D06368012B20D0022B25D0364A12687B
:1031500012F0020F63D034498A6822F0030213434D
:103160008B60FDF7D1FE06462F4B9B6803F00C03E6
:103170006268B3EB820F16D0FDF7C6FE801B41F2EA
:1031800088339842F0D90320B9E7274A126812F42D
:10319000003FE0D10120B2E7234A126812F0007F1D
:1031A000D9D10120ABE71F4B1B6803F00F03AB42E3
:1031B0000CD91C4A136823F00F032B4313601368C8
:1031C00003F00F03AB4201D0012098E7236813F00E
:1031D000040F06D0144A936823F4E053E1680B43CC
:1031E0009360236813F0080F07D00F4A936823F405
:1031F0006043216943EAC1039360FFF715FF0A4B5F
:103200009B68C3F30313094AD35CD840084B18608A
:10321000002005F0EBFB002071E701207047012042
:103220006DE700BF003C0240003802408CD100082E
:1032300038000020014B1868704700BF380000209C
:1032400008B5FFF7F7FF044B9B68C3F38223034ADB
:10325000D35CD84008BD00BF003802409CD10008B4
:1032600008B5FFF7E7FF044B9B68C3F34233034AFB
:10327000D35CD84008BD00BF003802409CD1000894
:103280000F2303600B4B9A6802F0030242609A68B6
:1032900002F0F00282609A6802F4E052C2609B6819
:1032A000DB0803F4E0530361034B1B6803F00F03D7
:1032B0000B60704700380240003C0240F0B583B01C
:1032C0000446036813F0010F0CD0AF4B9A6822F448
:1032D00000029A609A68416B0A439A60436BC3B1DB
:1032E000002600E00026236813F4002F15D0A64A1C
:1032F000D2F88C3023F44013E16B0B43C2F88C30CE
:10330000E36BB3F5801F06D0002B00F01B81002576
:1033100004E00126E7E70126F6E70025236813F419
:10332000801F0FD0984AD2F88C3023F44003216CD0
:103330000B43C2F88C30236CB3F5800F00F004818E
:1033400003B90125236813F0807F00D0012613F014
:10335000200F40F0FB80236813F0100F0CD08A4B35
:10336000D3F88C2022F08072C3F88C20D3F88C2004
:10337000A16B0A43C3F88C20236813F4804F08D054
:10338000814AD2F8903023F44033616E0B43C2F887
:103390009030236813F4004F08D07B4AD2F8903065
:1033A00023F44023A16E0B43C2F89030236813F43A
:1033B000803F08D0744AD2F8903023F44013E16E75
:1033C0000B43C2F89030236813F4003F08D06E4AD4
:1033D000D2F8903023F44003216F0B43C2F89030B1
:1033E000236813F0400F08D0674AD2F8903023F0DA
:1033F0000303616C0B43C2F89030236813F0800F15
:1034000008D0614AD2F8903023F00C03A16C0B4332
:10341000C2F89030236813F4807F08D05A4AD2F85B
:10342000903023F03003E16C0B43C2F890302368F6
:1034300013F4007F08D0544AD2F8903023F0C00330
:10344000216D0B43C2F89030236813F4806F08D0CD
:103450004D4AD2F8903023F44073616D0B43C2F8AB
:103460009030236813F4006F08D0474AD2F89030A8
:1034700023F44063A16D0B43C2F89030236813F42A
:10348000805F08D0404AD2F8903023F44053E16D79
:103490000B43C2F89030236813F4005F08D03A4A17
:1034A000D2F8903023F44043216E0B43C2F89030A1
:1034B000236813F4800F08D0334AD2F8903023F0F9
:1034C0008063A16F0B43C2F89030236813F4001F90
:1034D0000DD02D4AD2F8903023F00063E16F0B43FA
:1034E000C2F89030E36FB3F1006F00F09980236869
:1034F00013F0080F00D0012513F4802F08D0224AC2
:10350000D2F8903023F04073616F0B43C2F89030D3
:10351000236813F4000F09D01B4AD2F8903023F02F
:103520008053D4F880100B43C2F89030002E79D12C
:103530002368B3F1007F75D0002D40F00681002094
:1035400003B0F0BD0125E9E60126F9E60E4B1A6C41
:1035500042F080521A641B6C03F080530193019B6C
:103560000A4A136843F480731360FDF7CDFC0746E5
:10357000064B1B6813F4807F0AD1FDF7C5FCC01B06
:103580006428F5D90320DBE70038024000700040D2
:10359000B34B1B6F13F4407315D0226B02F44072CF
:1035A0009A4210D0AE4B1A6F22F44072196F41F458
:1035B00080311967196F21F4803119671A671B6F01
:1035C00013F0010F12D1236B03F44072B2F5407F68
:1035D0001DD0A34A936823F4F8139360A0490B6F9E
:1035E000226BC2F30B0213430B67B4E6FDF78CFCAE
:1035F00007469B4B1B6F13F0020FE4D1FDF784FCD1
:10360000C01B41F288339842F3D9032098E79448CD
:10361000826822F4F812934919400A438260DDE778
:10362000012564E78E4A136823F080631360FDF779
:103630006BFC06468A4B1B6813F0006F06D0FDF743
:1036400063FC801B6428F5D9032079E7236813F015
:10365000010F13D0636B8BB9814AD2F88430D2F852
:103660008410606803F4403343EA801301F0706112
:103670000B43A16843EA0173C2F88430236813F452
:10368000002F03D0E26BB2F5801F06D013F4801F29
:103690001ED0236CB3F5800F1AD1714AD2F8843052
:1036A000D2F88410606803F4403343EA8013E06882
:1036B00043EA006301F0E0410B43C2F88430D2F8E2
:1036C0008C3023F01F03616A01390B43C2F88C3040
:1036D000236813F0807F11D0614AD2F88400D2F8B9
:1036E0008410666823691B0443EA861300F0706047
:1036F000034301F0E0410B43C2F88430236813F028
:10370000007F0DD0626823691B0443EA8213E268DC
:1037100043EA0263A26843EA0273514AC2F8843062
:103720004F4A136843F080631360FDF7EDFB0646D4
:103730004B4B1B6813F0006F7FF4FEAEFDF7E4FB0C
:10374000801B6428F4D90320FAE6454A136823F065
:1037500080531360FDF7D8FB0546414B1B6813F0FF
:10376000005F06D0FDF7D0FB401B6428F5D903208D
:10377000E6E6236813F4002F01D0E26B22B113F4C4
:10378000801F1DD0236CDBB9354AD2F88830D2F8BF
:103790008810606903F4403343EA8013A06943EA68
:1037A000006301F0E0410B43C2F88830D2F88C305E
:1037B00023F4F853A16A013943EA0123C2F88C309B
:1037C000236813F4001F03D0E36FB3F1006F31D00F
:1037D000236813F0080F19D0214AD2F88810D2F8C4
:1037E0008830606903F4403343EA801301F070616C
:1037F0000B43E16943EA0173C2F88830D2F88C3098
:1038000023F44033E16A0B43C2F88C30144A136846
:1038100043F080531360FDF777FB0446104B1B68A1
:1038200013F0005F19D1FDF76FFB001B6428F5D979
:10383000032085E60A4AD2F88800D2F88810656924
:10384000236A1B0443EA851300F07060034301F010
:10385000E0410B43C2F88830BAE7002070E600BFB1
:1038600000380240FFFCFF0F10B4B0F5002F07D066
:103870000023B0F5801F65D018465DF8044B7047F3
:10388000614BD3F88C3003F44013B3F5801F2ED076
:10389000B3F5001F54D00BB10023EAE75A4B5B6825
:1038A00013F4800F1BD1584B5A6802F03F02574B5C
:1038B000B3FBF2F3544AD2F88810C1F30361D2F893
:1038C0008840C4F3881403FB04F3B3FBF1F3D2F88C
:1038D0008C20C2F304220132B3FBF2F3C9E74A4B56
:1038E0005A6802F03F024A4BB3FBF2F3E2E7464B61
:1038F0005B6813F4800F1BD1434B5A6802F03F0200
:10390000424BB3FBF2F3404AD2F88410C1F3036197
:10391000D2F88440C4F3881403FB04F3B3FBF1F33F
:10392000D2F88C2002F01F020132B3FBF2F3A0E7C1
:10393000354B5A6802F03F02354BB3FBF2F3E2E736
:10394000344B96E7304AD2F88C2002F44002B2F5AC
:10395000800F2DD0B2F5000F53D0002A8CD12A4B06
:103960005B6813F4800F1BD1274B5A6802F03F02AB
:10397000264BB3FBF2F3244AD2F88800C0F303606D
:10398000D2F88810C1F3881103FB01F3B3FBF0F305
:10399000D2F88C00C0F304200130B3FBF0F36BE7E6
:1039A000194B5A6802F03F02194BB3FBF2F3E2E7FE
:1039B000154B5B6813F4800F1BD1134B5A6802F050
:1039C0003F02124BB3FBF2F30F4AD2F88400C0F36C
:1039D0000360D2F88410C1F3881103FB01F3B3FB39
:1039E000F0F3D2F88C0000F01F000130B3FBF0F3CD
:1039F00042E7054B5A6802F03F02054BB3FBF2F376
:103A0000E2E7044B38E700BF003802400024F4002E
:103A100040787D010080BB0038B504460268D36859
:103A200023F0A003D360FDF76FFA05462368DB6837
:103A300013F0200F07D1FDF767FA401BB0F57A7F2E
:103A4000F4D9032000E0002038BD38B50368DA68F7
:103A500012F0400F01D0002038BD04464FF0FF3275
:103A6000DA60FDF751FA05462368DB6813F0400F72
:103A700007D1FDF749FA401BB0F57A7FF4D903204E
:103A8000EAE70020E8E7000000284AD038B50446FD
:103A9000437F002B3AD0022363772368CA225A62FD
:103AA000236853225A622046FFF7CFFF02460028C0
:103AB00030D1216888681C4B03408B602068816886
:103AC000636825692B4365692B430B438360236837
:103AD000E168196121680B69A06843EA00430B6142
:103AE0002168CB6823F08003CB602168CB6C23F086
:103AF0000803CB642168CB6CA0690343CB642368C3
:103B0000FF21596201236377104638BD037704F023
:103B100061FDC0E72368FF225A6204236377012214
:103B2000F2E7012210467047BFFF8FFF002302E03B
:103B300001330A38C0B20928FAD81B01DBB2184396
:103B400070470000F8B5037F012B76D00D46044680
:103B50000123037702234377002A44D103689B683B
:103B600013F0400F01D100230B732878FFF7DEFF1D
:103B700006046878FFF7DAFF46EA0026A878FFF720
:103B8000D5FF0643287B46EA00462368CA225A62CC
:103B9000236853225A622046FFF757FF0746002842
:103BA00033D12268264B334013602268936823F494
:103BB0008023936021688B682A69686902431343F4
:103BC0008B602268D36823F08003D36023689B68EE
:103BD00013F0200F23D02368FF225A62012363775A
:103BE0000023237719E003689B6813F0400F01D18D
:103BF00000230B7328786E78360246EA0046A878D0
:103C00000643287B46EA0046BFE72368FF225A6244
:103C1000042363770023237701273846F8BD204625
:103C2000FFF7FAFE0028D6D02368FF225A62042349
:103C30006377002323770127EFE70227EDE700BF33
:103C40007F7F7F0070B5037F012B64D00123037752
:103C5000022343773AB94B7813F0100F03D003F0E7
:103C6000EF030A334B700E460446002A30D1C87861
:103C7000FFF75CFF05047078FFF758FF45EA002561
:103C8000B078FFF753FF0543307845EA40352368A5
:103C9000CA225A62236853225A622046FFF7D5FE91
:103CA000064600BB22681D4B2B4053602268D36838
:103CB00023F08003D36023689B6813F0200F1CD08F
:103CC0002368FF225A62012363770023237712E0DF
:103CD000C8784D782D0245EA004588780543087874
:103CE00045EA4035D3E72368FF225A62042363770D
:103CF000002323770126304670BD2046FFF78CFE57
:103D00000028DDD02368FF225A6204236377002352
:103D100023770126EFE70226EDE700BF3FFFFF0014
:103D2000F8B5037F012B00F0A9800D46044601235E
:103D3000037702234377002A4DD103689B6813F071
:103D4000400F01D100230B732E6A2878FFF7EEFE97
:103D500007046878FFF7EAFE47EA0027A878FFF72C
:103D6000E5FE0743287B47EA004795F82400FFF764
:103D7000DDFE47EA00600643AB691E436F68EB69EE
:103D80001F432368CA225A62236853225A62AB6ACD
:103D9000B3F5807F39D02268936823F40073936071
:103DA0002268936823F400539360FDF7ADF805464D
:103DB0002368DA6812F0020F50D1FDF7A5F8401B16
:103DC000B0F57A7FF4D92368FF225A620320607726
:103DD0000023237751E003689B6813F0400F01D163
:103DE00000230B732A6A29786B781B0243EA01438C
:103DF000A9780B43297B43EA014395F8241043EA51
:103E000001631343AE691E43B8E72268936823F445
:103E1000807393602268936823F480539360FDF766
:103E200073F805462368DA6812F0010F0DD1FDF72B
:103E30006BF8401BB0F57A7FF4D92368FF225A62F1
:103E4000032060770023237717E0DE6123685F6437
:103E50002268936843F48073936007E01E622368CE
:103E60009F642268936843F4007393602368FF2281
:103E70005A620123637700202077F8BD0220FCE717
:103E800070B4047F012C27D00124047702234377E8
:103E90000568AE68A3F60B0333401943CA236B626F
:103EA000036853255D620568EB6C23F00603EB6441
:103EB0000568EB6C1A43EA640368996002689368CA
:103EC00043F4006393600368FF225A62447700233F
:103ED0000377184670BC70470220FBE70E4B1B6847
:103EE0000E4AA2FB03231B0B9B0001680A6822F405
:103EF00080320A605A1E3BB103681968134611F4F8
:103F0000803FF7D100207047D0F8803043F0400365
:103F1000C0F8803003207047380000201BECCB95A0
:103F2000002800F0EB8070B5044690F87D30002B3F
:103F300000F0B980022384F87D302046FFF7CEFFE1
:103F4000E368012B00F0B680022B00F0B180002264
:103F5000A368022B00F0B080032B00F0B080012B8F
:103F600000F0B28000252368654866498B4218BF7F
:103F7000834240F0AC80644B1A60E36923B323684A
:103F80005F49604A934218BF8B4200F0A380002033
:103F900023685E495E4A934218BF8B4200F09F80BF
:103FA00000EB80004100E3695B02B1FBF3F1594B88
:103FB000A3FB0123DB08236203EB830042008A1A80
:103FC000082A01D9013323626268022A14BF002340
:103FD0000123002A08BF0123002B00F08780E36B38
:103FE000012B00F081804FF4007621680B684A4A6B
:103FF0001A400A60226811686368206B0343606B93
:104000000343A06B034333432B43606A034320699C
:10401000034360690343206A43EA00530B43136080
:10402000226851683D4B0B40536021684A68A36980
:10403000A06A0343E06A034313434B60226891681C
:10404000374B0B40936020688268236C013B216DE5
:104050000B43A16C0B43E16C0B43616C013943EAE8
:104060000123134383602268D36823F47D6323F024
:104070000F031B041B0CD3602068C268636DA16D25
:104080000B43216E43EA0143E16D013943EA012309
:104090001343C3600020C4F88000012384F87D30FE
:1040A00084F87C0070BD80F87C3004F049FC41E766
:1040B00020224DE710224BE74FF4006553E742F012
:1040C00001024FF400654EE74FF480654BE7154B56
:1040D0001A6052E74FF40020FFF7C6FB58E74FF491
:1040E0008010FFF7C1FB5BE700267EE7E36B012B47
:1040F00001D0002679E74FF4007676E7012070477B
:10410000045801402458014000580140045C01401B
:10411000245C0140CDCCCCCC10C005FFF01FFFFFCC
:104120000080F8FF005C0140D8B138B504460D4668
:1041300090F82C3083B1022384F82C30211D2068A4
:1041400001F00CF862682946206801F041F801236B
:1041500084F82C30002038BD80F82D3004F0ECFBC2
:10416000E9E70120704738B590F82C30DBB2022B1C
:1041700014D00D460446022380F82C30006801F06C
:1041800073F82B68022B04D0012384F82C30002014
:1041900038BD052384F82C300020F9E70220F7E72A
:1041A00090F82C30DBB2022B0CD010B50446022361
:1041B00080F82C30006801F06DF8012384F82C3071
:1041C000002010BD02207047002830D010B50446F2
:1041D00090F8453033B3022384F8453022681368E1
:1041E00023F00303136021680B68124A1A40A36985
:1041F00060680343A0680343E06803432069034306
:1042000060690343E0690343206A0343606A034330
:10421000A06A034313430B600020A064012384F8C9
:10422000453010BD80F8443004F0E4F9D3E70120B4
:10423000704700BF0784F8FF70B4036A23F00103DE
:104240000362036A42688569124C2C400D6825435D
:1042500023F002048B6823430F4C104EB04218BF6A
:10426000A0420CBF0124002405D123F00803CE682E
:10427000334323F004032CB122F440724C691443FD
:104280008A692243426085614A684263036270BC66
:10429000704700BF8CFFFEFF00000140000401409A
:1042A00070B4036A23F480730362036A4268C569C9
:1042B000144C2C400E68264323F400738C6843EAA8
:1042C0000423114C114DA84218BFA0420CBF012479
:1042D000002406D123F40063CD6843EA052323F4C8
:1042E00080633CB122F440524C6942EA04128C696A
:1042F00042EA04124260C6614A68C263036270BC4B
:10430000704700BF8CFFFEFF000001400004014029
:1043100070B4036A23F480530362036A4468C56976
:104320000D4A2A400D6842EA052223F400538D68A5
:1043300043EA0533094E0A4DA84218BFB04204D1E2
:1043400024F480444D6944EA85144460C2614A689B
:104350000264036270BC7047FF8CFFFE00000140E6
:104360000004014070B4036A23F480330362036ADB
:104370004268446D0D4D25400C682C4323F40033F6
:104380008D6843EA05430A4E0A4DA84218BFB04261
:1043900004D122F480324D6942EA0522426044652C
:1043A0004A688265036270BC704700BF8FFFFEFFE2
:1043B000000001400004014070B4036A23F480133C
:1043C0000362036A4468456D0D4A2A400D6842EA5B
:1043D000052223F400138D6843EA0553094E0A4D64
:1043E000A84218BFB04204D124F480244D6944EAA5
:1043F0008524446042654A68C265036270BC7047A8
:10440000FF8FFFFE000001400004014010B4036A6A
:10441000046A24F001040462846924F0F00444EA8C
:10442000021223F00A030B43826103625DF8044B1E
:10443000704710B4036A23F0100303628469036AAF
:1044400024F4704444EA023223F0A00343EA011347
:10445000826103625DF8044B7047836823F0700348
:10446000194341F007018160704700000268D3687A
:1044700043F00103D36002689168064B0B40062BA2
:1044800018BFB3F5803F03D0136843F001031360F6
:104490000020704707000100704770477047704761
:1044A00010B5044603681A6912F0020F11D0DA68D9
:1044B00012F0020F0DD06FF002021A610123037790
:1044C00003689B6913F0030F79D0FFF7E6FF002321
:1044D000237723681A6912F0040F12D0DA6812F0F9
:1044E000040F0ED06FF004021A61022323772368B1
:1044F0009B6913F4407F68D02046FFF7CEFF00236E
:10450000237723681A6912F0080F12D0DA6812F0C4
:10451000080F0ED06FF008021A6104232377236876
:10452000DB6913F0030F57D02046FFF7B6FF0023D7
:10453000237723681A6912F0100F12D0DA6812F08C
:10454000100F0ED06FF010021A6108232377236832
:10455000DB6913F4407F46D02046FFF79EFF00231F
:10456000237723681A6912F0010F03D0DA6812F07A
:10457000010F3FD123681A6912F0800F03D0DA6867
:1045800012F0800F3DD123681A6912F4807F03D0A6
:10459000DA6812F0800F3BD123681A6912F0400FDD
:1045A00003D0DA6812F0400F39D123681A6912F08B
:1045B000200F03D0DA6812F0200F37D110BDFFF7BB
:1045C0006BFF2046FFF76AFF81E72046FFF764FF95
:1045D0002046FFF763FF92E72046FFF75DFF204686
:1045E000FFF75CFFA3E72046FFF756FF2046FFF7E3
:1045F00055FFB4E76FF001021A61204603F0ECFCAE
:10460000B8E76FF080021A61204600F096FABAE728
:104610006FF480721A61204600F090FABCE76FF0E8
:1046200040021A612046FFF73AFFBEE76FF0200212
:104630001A61204600F080FAC0E7000070B40368F9
:104640003A4CA04214BF00240124B0F1804F14BFA3
:10465000224644F00102AAB9354DA84214BF0025F4
:104660000125344EB0420DD065B905F1804505F500
:104670008235A84214BF0025012506F50066B04228
:1046800000D01DB123F070034D682B43002A33D1B5
:10469000274A904214BF00220122264DA8422BD067
:1046A00052BB02F1804202F58232904214BF0022D6
:1046B000012205F50065A8421ED0EAB91E4A9042C3
:1046C00014BF0022012205F59A35A84214D09AB9E8
:1046D0001A4A904214BF0022012205F50065A84243
:1046E0000AD04AB9164A904214BF00220122A5F509
:1046F0009635A84200D01AB123F44073CA68134318
:1047000023F080034A69134303608A68C2620A681F
:1047100082620C4B984214BF234644F001030BB154
:104720000B6903630123436170BC704700000140C3
:104730000008004000040040004401400018004010
:104740000020004000040140A8B110B5044690F8D4
:104750003D305BB1022384F83D30211D2068FFF716
:104760006DFF012384F83D30002010BD80F83C30FF
:1047700003F070FFEEE701207047A8B110B50446C2
:1047800090F83D305BB1022384F83D30211D206854
:10479000FFF754FF012384F83D30002010BD80F85E
:1047A0003C3003F0ABFFEEE70120704770B4036AC2
:1047B00023F010030362036A42688569144C2C409D
:1047C0000D6844EA052523F020038C6843EA0413AE
:1047D000104C114EB04218BFA0420CBF012400245F
:1047E00006D123F08003CE6843EA061323F040038A
:1047F0003CB122F440624C6942EA84028C6942EA8C
:104800008402426085614A688263036270BC7047BB
:10481000FF8CFFFE000001400004014038B590F815
:104820003C30012B00F092800D460446012380F8B5
:104830003C30022380F83D30142A1ED8DFE802F015
:104840000B1D1D1D241D1D1D381D1D1D4B1D1D1D5A
:104850005F1D1D1D72000068FFF7EEFC2268936962
:1048600043F0080393612268936923F00403936182
:104870002268936929690B439361012384F83D30D1
:10488000002084F83C0038BD0068FFF78FFF2268E5
:10489000936943F4006393612268936923F480630E
:1048A000936122689369296943EA01239361E4E7EC
:1048B0000068FFF7F5FC2268D36943F00803D36171
:1048C0002268D36923F00403D3612268D36929697C
:1048D0000B43D361D1E70068FFF71AFD2268D36963
:1048E00043F40063D3612268D36923F48063D36106
:1048F0002268D369296943EA0123D361BDE70068CF
:10490000FFF730FD2268536D43F0080353652268BA
:10491000536D23F0040353652268536D29690B43DB
:104920005365AAE70068FFF747FD2268536D43F41B
:10493000006353652268536D23F4806353652268D6
:10494000536D296943EA0123536596E702209AE7EC
:1049500010B4846824F47F4442EA03230B432343C6
:1049600083605DF8044B704790F83C30012B64D0B5
:1049700010B50446012380F83C30022380F83D3016
:10498000026890682E4B034093600B68402B4AD01E
:1049900013D9602B3DD01ED9702B28D0B3F5005F02
:1049A00030D1CB684A6889682068FFF7D1FF226858
:1049B000936843F48043936024E0102B06D004D91D
:1049C000202B03D0302B01D01CE0DBB91946206826
:1049D000FFF743FD16E0502B14D1CA6849682068E0
:1049E000FFF714FD50212068FFF737FD0AE0CB6880
:1049F0004A6889682068FFF7ABFF2268936843F034
:104A000077039360012384F83D30002084F83C0054
:104A100010BDCA6849682068FFF70BFD6021206857
:104A2000FFF71BFDEEE7CA6849682068FFF7EEFC58
:104A300040212068FFF711FDE4E70220704700BF26
:104A40008800FEFF90F83C30012B27D070B4012382
:104A500080F83C30022380F83D3003685A689D6836
:104A60000F4E104CA34218BFB34203D122F4700280
:104A70004C68224322F070020C68224325F0800427
:104A8000896821435A6003689960012380F83D30AA
:104A9000002380F83C30184670BC704702207047F5
:104AA000000001400004014090F83C30012B3CD054
:104AB00030B4012380F83C30CB6823F440738A681B
:104AC000134323F480634A68134323F400630A68A2
:104AD000134323F480530A69134323F400534A69B0
:104AE000134323F480438A6A134323F470238A69AF
:104AF00043EA024302680E4D0E4CA24218BFAA427E
:104B00000CD123F470034C6A43EA045323F08073FE
:104B1000CC69234323F00073096A0B4353640023D9
:104B200080F83C30184630BC70470220704700BF08
:104B300000000140000401407047704770470000CA
:104B400010B5044683680269134342691343C2697E
:104B5000134301680868994A024013430B602268B6
:104B6000536823F44053E1680B435360A269236AFE
:104B70001A4321688B6823F4306313438B602368E6
:104B80008F4A934218D08F4A934228D08E4A93423C
:104B90003DD08E4A934250D08D4A934262D08D4A86
:104BA000934277D08C4A934200F08C808B4A934298
:104BB00000F0A0801023B6E0894BD3F8903003F0CA
:104BC0000303032B09D8DFE803F00204AD06012339
:104BD000A9E00423A7E00823A5E01023A3E0804B6D
:104BE000D3F8903003F00C030C2B0ED8DFE803F061
:104BF000070D0D0D090D0D0DA90D0D0D0B00002359
:104C000091E004238FE008238DE010238BE0744BA8
:104C1000D3F8903003F03003102B0AD006D9202BA4
:104C200000F09180302B06D108237CE01BB90023D3
:104C300079E0042377E0102375E0694BD3F89030D6
:104C400003F0C003402B09D005D9802B7DD0C02BA9
:104C500006D1082367E01BB9002364E0042362E067
:104C6000102360E05E4BD3F8903003F44073B3F54B
:104C7000807F0BD007D9B3F5007F68D0B3F5407FB4
:104C800006D108234FE01BB900234CE004234AE07F
:104C9000102348E0524BD3F8903003F44063B3F54F
:104CA000806F0BD007D9B3F5006F52D0B3F5406FCA
:104CB00006D1082337E01BB9012334E0042332E096
:104CC000102330E0464BD3F8903003F44053B3F553
:104CD000805F0BD007D9B3F5005F3CD0B3F5405FE0
:104CE00006D108231FE01BB900231CE004231AE0AF
:104CF000102318E03A4BD3F8903003F44043B3F557
:104D0000804F0BD007D9B3F5004F26D0B3F5404FF5
:104D100006D1082307E01BB9002304E0042302E0C6
:104D2000102300E00223E269B2F5004F17D0082BF0
:104D300000F2B380DFE803F0768B95B19EB1B1B19C
:104D4000A8000223EFE70223EDE70223EBE70223AB
:104D5000E9E70223E7E70223E5E70223E3E7082B7D
:104D60005DD8DFE803F0051F3F5C485C5C5C5300E6
:104D7000FEF766FA6268530803EB4003B3FBF2F3F5
:104D80009BB20020A3F110014FF6EF72914200F2A6
:104D900087809AB222F00F02C3F3420313432268C2
:104DA000D36050E0FEF75CFA6268530803EB4003FF
:104DB000B3FBF2F39BB20020E4E700BFF369FFEF1F
:104DC000001001400044004000480040004C0040FA
:104DD000005000400014014000780040007C00407A
:104DE000003802406268304B03EB5203B3FBF2F32E
:104DF0009BB20020C6E7FEF717F96268530803EB81
:104E00004003B3FBF2F39BB20020BBE76268530898
:104E100003F58033B3FBF2F39BB20020B2E701202D
:104E20000023AFE7FEF70CFA626800EB5203B3FB16
:104E3000F2F39BB20020A3F110014FF6EF72914202
:104E400030D82268D36000232366636610BDFEF766
:104E500007FA626800EB5203B3FBF2F39BB2002047
:104E6000E9E76268114B03EB5203B3FBF2F39BB229
:104E70000020E0E7FEF7D8F8626800EB5203B3FBCE
:104E8000F2F39BB20020D6E76268530803F50043B3
:104E9000B3FBF2F39BB20020CDE701200023CAE769
:104EA0000120D0E70120CEE70048E8010024F4000B
:104EB000436A13F0010F06D00268536823F40033ED
:104EC000816A0B435360436A13F0020F06D00268F5
:104ED000536823F48033C16A0B435360436A13F071
:104EE000040F06D00268536823F48023016B0B4340
:104EF0005360436A13F0080F06D00268536823F426
:104F00000043416B0B435360436A13F0100F06D00C
:104F10000268936823F48053816B0B439360436A68
:104F200013F0200F06D00268936823F40053C16B7E
:104F30000B439360436A13F0400F0AD00268536832
:104F400023F48013016C0B435360036CB3F5801F93
:104F50000BD0436A13F0800F06D00268536823F425
:104F60000023816C0B43536070470268536823F43D
:104F7000C003416C0B435360EBE72DE9F04105465C
:104F80000F4616469846069C2B68DB6937EA0303F2
:104F90000CBF01230023B3421CD1B4F1FF3FF3D077
:104FA000FBF7B2FFA0EB0800A04201D8002CEBD128
:104FB0002A68136823F4D07313602A68936823F077
:104FC0000103936020236B67AB67002385F8703083
:104FD000032000E00020BDE8F0812DE9F04182B01F
:104FE0001E46436F202B59D104460D469046B2FA17
:104FF00082F35B09002908BF0123002B53D190F8ED
:105000007030012B51D0012380F870300023C3672A
:1050100021234367FBF778FF0746A4F85080A4F8E4
:105020005280A368B3F5805F02D04FF0000810E013
:1050300023690BB34FF000080BE038F8023B2268FD
:10504000C3F308039362B4F85230013B9BB2A4F857
:105050005230B4F852309BB28BB100963B460022DE
:1050600080212046FFF789FF08BB002DE5D015F809
:10507000012B23689A62E6E7A8460025E9E7009637
:105080003B46002240212046FFF777FF034680B9C8
:1050900020226267002284F8702000E00223184674
:1050A00002B0BDE8F0810123F9E70223F7E703230B
:1050B000F5E70323F3E710B582B004460023C36786
:1050C000FBF722FF2268126812F0080F07D1202395
:1050D0006367A367002084F8700002B010BD6FF012
:1050E0007E430093034600224FF400112046FFF751
:1050F00044FF0028EBD00320EFE768B310B5044667
:10510000436F03B3242363672268136823F001030A
:1051100013602046FFF714FD012813D0636ABBB962
:105120002268536823F4904353602268936823F005
:105130002A0393602268136843F00103136020463A
:10514000FFF7B9FF10BD80F8703003F085FBD9E799
:105150002046FFF7ADFEE3E70120704730B40B684F
:10516000012B18D00368194A1A404B688C682343F6
:10517000CC6823430C6923434C6923438C69234344
:10518000CC6923430C6A2343496A0B4313430360EE
:10519000002030BC7047046824F4F844CB690A6AE4
:1051A0001A434B6A1A4322434368084C1C404B681D
:1051B0008D682B43CD682B430D692B434D692B43E1
:1051C00089690B43234302604360E1E70080FFFFEE
:1051D00030B4012A21D0826802F070420B68013B92
:1051E0004C68013C43EA04138C68013C43EA042305
:1051F000CC68013C43EA04330C69013C43EA0443B4
:105200004C69013C43EA04538969013943EA01636B
:1052100013438360002030BC70478368114C1C40EE
:10522000CA68551E4B695A1E120542EA05322243CE
:10523000C46804F070440B68013B4D68013D43EACB
:1052400005138D68013D43EA05230D69013D43EADD
:1052500005438969013943EA016323438260C360DE
:10526000D8E700BFFF0F0FFF10B483B00446002043
:1052700001900B684A6813438A68013A43EA421373
:10528000CA6843EA42230193019B236103B05DF89E
:10529000044B7047436943EA410141610020704774
:1052A000836843F00103836000207047836823F024
:1052B0000103836000207047890141F020010161F2
:1052C00000230133054A934205D8026912F0200FEA
:1052D000F7D1002070470320704700BF400D030046
:1052E0001023036100230133054A934205D8026964
:1052F00012F0100FF7D1002070470320704700BF55
:10530000400D030003329208002301E00431013311
:105310009342FBD30846704742698069104070474A
:10532000406900F00100704710B400F58064D0F8C7
:10533000003423F00303C0F80034D0F8003401F047
:1053400003021343C0F80034012905D0022907D015
:1053500000205DF8044B70474BF680336360F7E73D
:1053600041F270736360F3E782B000230193D0F8D9
:1053700040340193019B23F02E030193019B13F40E
:10538000805F01D101290CD0019B13F4805F05D00F
:1053900021B9019B23F48053C0F84034002002B0AF
:1053A0007047019B43F48053C0F84034ECE700F5AC
:1053B0008060406980B2704710B400EB411101F584
:1053C000A062D1F80035C3F38143022B14BF00243F
:1053D0000124002B14BF234601235BB3D1F8003511
:1053E00043F08043C1F80035C36A13F47F0F1AD12C
:1053F000D1F8003523F00043C1F80035D1F800356D
:1054000043F00043C1F80035D1F8003523F40043E0
:10541000C1F8003500230133B3F57A7F36D811681F
:105420000029F8DB32E0D1F8003543F00043C1F841
:1054300000352BE0D1F8003543F08043C1F800354A
:10544000D0F8103413F47F0F1AD1D1F8003523F0BF
:105450000043C1F80035D1F8003543F00043C1F8EE
:105460000035D1F8003523F40043C1F8003500239E
:105470000133B3F57A7F09D811680029F8DB05E01C
:10548000D1F8003543F00043C1F8003500205DF845
:10549000044B704770B505460446FFF707FF10211F
:1054A0002846FFF709FF2846FFF71AFF00220AE007
:1054B00004EB4211D1F8003523F0802343F0804300
:1054C000C1F8003501320F2AF2D90020034600E06E
:1054D00001300F2813D804EB401606F5A061D6F86A
:1054E000002522F4004242F04042C6F80025013374
:1054F000B3F57A7FECD80A68002AF8DBE8E74FF0CA
:10550000FF33C5F814346B612846FFF7C9FE00204D
:1055100070BD08B50378DBB20B2B00D008BDD0F806
:105520007833002BFAD09B699847F7E708B5D0F895
:10553000BC330133C0F8BC33FFF7EBFF08BD0123D8
:1055400080F81F337047002380F81F33704710B571
:10555000044603788BB9012380F81E33D0F8C83392
:105560000BB1042198470121C4F8D4130022D4F8C8
:10557000CC0300F04FF8002010BD90F81F33012B32
:10558000F1D102230370EEE710B5044603F013FBDC
:105590002179204600F027F86179204600F023F8B1
:1055A000002384F81E33D4F8C83313B105212046F4
:1055B0009847204603F0F7FA032323700121C4F82B
:1055C000D4130022D4F8CC0300F024F8002010BD3E
:1055D00008B50121C0F8D4130022D0F8CC0300F0A4
:1055E00019F8002008BD0A2906D8E03150F821300A
:1055F000C3F30E0340F8213000207047EFF305801D
:10560000003018BF0120704708B500F05FFD002092
:1056100008BD000030B585B0044601910023039316
:10562000154602B90125FFF7E9FF98B1002303AA47
:1056300001A9204600F04AFA012818D1039BC3B102
:105640000D4B4FF080521A60BFF34F8FBFF36F8F37
:10565000002008E000232A4601A9204600F06CF94A
:10566000012802D1002005B030BDFF20FBE7FF205C
:10567000F9E70020F7E700BF04ED00E000F10803C0
:1056800043604FF0FF328260C36003610023036018
:10569000704700230361704743684B609A688A60D3
:1056A0009A6851609960086103680133036070472C
:1056B00030B40D68B5F1FF3F02D000F1080202E0FE
:1056C000026904E01A4653681C68AC42FAD9536870
:1056D0004B6099608A605160086103680133036020
:1056E00030BC704703694268816891608268416894
:1056F00051605A68824206D0002202611A68013A5B
:105700001A601868704782685A60F5E7436A23B1E7
:10571000036B1868C0F1070070470020704710B590
:10572000044601F01FF9A26BE36B9A4204D00024F7
:1057300001F03EF9204610BD0124F9E710B50446FA
:1057400001F010F9A36B23B1002401F031F92046D8
:1057500010BD0124F9E770B504461646856B026C4E
:105760005AB903681BB100200135A56370BD4068BC
:1057700000F0B6FF00236360F6E76EB9806803F0BF
:1057800077FA226CA3681344A3606268934219D32A
:105790002368A3600020E7E7C06803F069FA226C81
:1057A0005242E3681344E36021688B4202D263688B
:1057B0001A44E260022E01D00020D5E725B1013D58
:1057C0000020D1E70020CFE70020CDE738B505461F
:1057D00001F0C8F895F8454064B203E000F006FF18
:1057E000013C64B2002C08DD6B6A33B105F1240082
:1057F00000F06AFE0028F3D0F0E7FF2385F845307B
:1058000001F0D6F801F0AEF895F8444064B203E038
:1058100000F0ECFE013C64B2002C08DD2B6933B1D2
:1058200005F1100000F050FE0028F3D0F0E7FF2350
:1058300085F8443001F0BCF838BD000038B550B9E7
:105840004FF0500372B683F31188BFF36F8FBFF32D
:105850004F8F62B6FEE704460D4601F083F82168DB
:10586000E26B236C03FB021060600020A063A16068
:10587000013A02FB0313E360FF2384F8443084F809
:105880004530A5B923691BB901F092F8012038BD54
:1058900004F1100000F018FE0028F5D0084B4FF07E
:1058A00080521A60BFF34F8FBFF36F8FECE704F1A4
:1058B0001000FFF7E3FE04F12400FFF7DFFEE3E74B
:1058C00004ED00E038B51D46049C0B4661B1226032
:1058D000E063236401212046FFF7B0FF84F84C50B9
:1058E000204601F071FB38BD2460F1E750B94FF05C
:1058F000500372B683F31188BFF36F8FBFF34F8FDE
:1059000062B6FEE7F0B583B0054611B101FB00F0C9
:1059100000E0002017460C46503001F0ABF9064677
:1059200038B100903B4600F1500221462846FFF76F
:10593000C9FF304603B0F0BDF0B585B0019270B13B
:105940000446B9B9026CAAB14FF0500372B683F3A2
:105950001188BFF36F8FBFF34F8F62B6FEE74FF032
:10596000500372B683F31188BFF36F8FBFF34F8F6D
:1059700062B6FEE7022B0DD1E26B012A0AD04FF08E
:10598000500372B683F31188BFF36F8FBFF34F8F4D
:1059900062B6FEE71E460F4600F030FE60B9019B7E
:1059A00063B14FF0500372B683F31188BFF36F8F6A
:1059B000BFF34F8F62B6FEE700253EE000253CE0D6
:1059C000A16B204601F050FB324639462046FFF7D6
:1059D000C2FE636A4BB9A8B13B4B4FF080521A60CC
:1059E000BFF34F8FBFF36F8F0CE004F1240000F082
:1059F0006BFD38B1344B4FF080521A60BFF34F8FBC
:105A0000BFF36F8F00F0D4FF012005B0F0BD00F0B0
:105A1000CFFF0020F9E702A800F09AFD012519E068
:105A2000002384F8443021E0002384F8453023E04B
:105A30002046FFF7CBFE00F019FC00F093FFA26BAD
:105A4000E36B9A42BCD3022EBAD0019B002BDED06E
:105A5000002DE0D000F0ACFF00F076FB00F082FFFC
:105A600094F844305BB2B3F1FF3FD9D094F845309D
:105A70005BB2B3F1FF3FD7D000F09AFF01A902A8B3
:105A800000F070FDC8B92046FFF749FE0028CFD0CE
:105A9000019904F1100000F0FBFC2046FFF796FE90
:105AA00000F0E4FB0028C8D1074B4FF080521A6089
:105AB000BFF34F8FBFF36F8FBFE72046FFF786FE20
:105AC00000F0D4FB0020A0E704ED00E02DE9F8434E
:105AD00070B10446B9B9006CA8B14FF0500372B66A
